S02B00004D616E75616C2D666565646261636B2D67656E6576612074756E6520616E64207261636B2061757427
S113000073C0000012C2000047C200007CC200009E
S1130010B1C200000C94810A0C94B80A95C0000087
S113002093C0000091C000008FC000008DC000008C
S11300308BC0000089C0000087C000000C94150A22
S113004083C0000081C000007FC000007DC00000AC
S11300507BC00000CBC1000077C0000075C0000069
S113006073C000000C941F0C6FC000006DC0000032
S11300706BC0000069C0000067C0000065C00000DC
S113008063C0000061C000005FC000005DC00000EC
S11300900C942F0C59C0000057C0000055C000003C
S11300A053C0000051C0000016C600004DC000003F
S11300B04BC0000049C0000047C0000045C000001C
S11300C043C0000041C000003FC000000C943F0C3E
S11300D03BC0000039C000000C94730C35C0000014
S11300E033C00000F102EF0A11241FBECFEFD1E2AA
S11300F0DEBFCDBF00E00CBF12E0A0E0B2E0E8E458
S1130100FDE100E00BBF02C007900D92AC30B107D7
S1130110D9F723E0ACE0B2E001C01D92AA31B207E6
S1130120E1F710E0C4E7D0E000E006C02197010940
S1130130802FFE010E949A0EC237D10780E0080783
S1130140A9F7BED50C94A20E5BCF84B5826084BDA2
S113015085B5856085BDEEE6F0E0808182608083B0
S113016016BC8BE987BD0895CF92DF92EF92FF9280
S11301700F931F931092B2021092B3028CE08093FB
S1130180B40280E590E09093AD028093AC021092AB
S1130190B1021092B00280E090E09C01220F331F64
S11301A0F901EC55FD4F11821082F901E456FD4F1F
S11301B01182108261E0680F80579D4F39D780917A
S11301C0B0029091B10261E0680F9C01220F331FCD
S11301D0220F331F220F331F820F931F84599D4F09
S11301E078D28091B0029091B1029C01220F331F0A
S11301F0820F931F880F991F880F991F880F991FCB
S11302000F2EF5E8CF2EFBEEDF2EF1E5EF2EFFE308
S1130210FF2EF02D00E010E098014CE55FE86AE164
S113022070E4845F9D4F12D78091B0029091B10227
S113023001969093B1028093B002843091050CF43E
S1130240ACCF83DF1F910F91FF90EF90DF90CF90A1
S113025008956F927F928F929F92AF92BF92CF92A6
S1130260DF92EF92FF921F93CF93DF93C4EAD2E021
S11302700F2EF0E0CF2EF2E0DF2EF02D0F2EFCEA51
S1130280AF2EF2E0BF2EF02D7E0162EA72E047014C
S11302900F2EFCE96F2EF2E07F2EF02DD601F30134
S11302A080E090E0419151911D9114039001159FBC
S11302B0300D1124820F931FE617F70799F7F40105
S11302C091838083F2E0EF0EF11C83E0C80ED11C11
S11302D0EA14FB04E1F683E090E09093AF0280938C
S11302E0AE020F2EF4E9CF2EF2E0DF2EF02D0F2E0A
S11302F0FCE0EF2EF2E0FF2EF02D69917991072EAC
S1130300000C880B990B0E94870D20E030E04BEE27
S113031053E40E94EC0C20E030E040E252E40E94FE
S1130320370E0E94540DF601619371936F01F7012A
S113033075876487F301119211923F01F8E1EF0E82
S1130340F11CCA15DB05C9F684E090E09093B10274
S11303508093B002DF91CF911F91FF90EF90DF90D7
S1130360CF90BF90AF909F908F907F906F900895A3
S11303708091B2028823C9F11092B1021092B002A6
S113038080E090E0FC01EE0FFF1FEE0FFF1FEE0F69
S1130390FF1FE80FF91FE459FD4F618172819C0131
S11303A0220F331F820F931F880F991F880F991FE5
S11303B0880F991F845F9D4F63D60E94540D20912E
S11303C0B0023091B102C90180579D4FF6D580919A
S11303D0B0029091B10201969093B1028093B00261
S11303E0843091057CF21092B20208951F920F920C
S11303F00FB60F9211248F938091B302882331F0AA
S11304008091B4028F5F8093B40202C01092B40250
S11304108091B4028D331CF08CE38093B4028F91ED
S11304200F900FBE0F901F9018951F920F920FB64A
S11304300F9211240BB60F928F939F93AF93BF9398
S1130440EF93FF9300990EC0ECE6F2E0858196816C
S1130450A781B0850196A11DB11D85839683A783CD
S1130460B0870DC0ECE6F2E085819681A781B08566
S11304700197A109B10985839683A783B087FF916A
S1130480EF91BF91AF919F918F910F900BBE0F9001
S11304900FBE0F901F9018951F920F920FB60F92D8
S11304A011240BB60F928F939F93AF93BF93EF9347
S11304B0FF9302990EC0ECE6F2E086859785A08949
S11304C0B1890196A11DB11D86879787A08BB18B39
S11304D00DC0ECE6F2E086859785A089B189019785
S11304E0A109B10986879787A08BB18BFF91EF9102
S11304F0BF91AF919F918F910F900BBE0F900FBE44
S11305000F901F9018951F920F920FB60F921124FF
S11305100BB60F928F939F93AF93BF93EF93FF9379
S1130520049B0EC0ECE6F2E08789908DA18DB28D1C
S11305300196A11DB11D878B908FA18FB28F0DC025
S1130540ECE6F2E08789908DA18DB28D0197A10927
S1130550B109878B908FA18FB28FFF91EF91BF91DB
S1130560AF919F918F910F900BBE0F900FBE0F9084
S11305701F9018951F920F920FB60F9211240BB66D
S11305800F928F939F93AF93BF93EF93FF93069B29
S11305900EC0ECE6F2E080A191A1A2A1B3A1019664
S11305A0A11DB11D80A391A3A2A3B3A30DC0ECE62A
S11305B0F2E080A191A1A2A1B3A10197A109B1097F
S11305C080A391A3A2A3B3A3FF91EF91BF91AF9195
S11305D09F918F910F900BBE0F900FBE0F901F90A5
S11305E01895ECE6F2E080E992E01182128213821F
S11305F0148215821682178210863996E817F90735
S1130600A1F7ECE0F2E08CE692E010821182128213
S1130610138214821582168217821086118612861E
S113062013861586148617861686118A108A138AED
S1130630128A7896E817F90741F708957894FC012F
S11306408081813049F4E898E9E6F0E080818260B5
S11306508083E89AE09A0895823049F4E998E9E6BB
S1130660F0E0808188608083E99AE19A089583307C
S113067049F4EA98E9E6F0E0808180628083EA9AAE
S1130680E29A0895843041F4EB98E9E6F0E0808141
S113069080688083EB9AE39A08958091B502811172
S11306A017C0E1EAF0E080818B608083E2E7F0E04C
S11306B080818260808386EA9EE09093A900809383
S11306C0A8001092A5001092A40081E08093B502C6
S11306D00895CF93DF93EC016883613029F4509837
S11306E00898589A109A14C0623029F451980A98BC
S11306F0599A129A0DC0633029F452980C985A9A58
S1130700149A06C0643021F453980E985B9A169A92
S1130710CE0194DFCE01C1DFDF91CF9108950F9315
S11307201F93CF93DF9380910F03823069F4ECE938
S1130730F2E0118210828091AC029091AD02938319
S113074082831582148232C0883081F4ECE9F2E0AD
S1130750118210828091AC029091AD0291958195A5
S11307609109938382831582148220C0813081F49D
S1130770ECE9F2E08091AC029091AD029195819503
S113078091099183808313821282158214820EC090
S1130790843061F4ECE9F2E08091AC029091AD0216
S11307A091838083138212821582148280910E03B6
S11307B0813031F491B3892781BB10920E037DC03F
S11307C0823051F49091BE02911140C091B38927B7
S11307D081BB10920E0371C08430A9F481E0809330
S11307E0BD028091BE02882331F067E07FEF8BE089
S11307F093E0C7D705C069EF70E08BE093E0C1D701
S113080010920E035AC0883061F488E691E0909308
S1130810D9028093D80281E08093BF0210920E0324
S11308204CC0803199F49091BE0291110FC081E0C7
S11308308093BD028093BA028D9A899A69EF70E021
S11308408BE093E09ED710920E0337C09091B702CD
S1130850911133C09091BA0291112FC09091B902B5
S113086091112BC0803249F58091B802882389F018
S113087081E08093B902FDD46093E8027093E902A9
S11308808093EA029093EB0291B380E1892781BBC4
S113089001C08C98C1E0C093B702EBD46093E4022A
S11308A07093E5028093E6029093E7028091B80288
S11308B0C827C093B80210920E038091BD02811123
S11308C013C08091110385310CF4DDC180910001C6
S11308D083FDD3C1D8C167E07FEF8BE093E051D7AC
S11308E003C08BE093E030D780910203909103031F
S11308F0A0910403B09105038D399F4F24F4809196
S1130900BE028111C6C18091020390910303A0919C
S11309100403B091050389339F4F9CF48091BD0279
S1130920882379F08091BC028111B9C10AC08998E9
S113093088E691E09093D9028093D80281E0809375
S1130940BF0280911303082E000C990B9C012253C3
S113095031091216130624F426303105B4F507C004
S113096022E330E0281B390B2630310574F5209141
S11309701203022E000C330BA90142535109141621
S1130980150624F44630510504F507C042E350E04F
S1130990FA01E21BF30B3697C4F420911403022EE0
S11309A0000C330BA901425351091416150624F403
S11309B04630510554F478C042E350E0BA01621B5A
S11309C0730B663071050CF46FC021E02093B30201
S11309D04091B402CCE9D2E022E330E0281B390B89
S11309E04203B001439F700D1124072E000C880BA5
S11309F0990B0E94870D20E030E84BE355E4ECD7D7
S1130A0020E030E048EC53E40E94370E0E94540D7D
S1130A10798368834091B4020EE013E0F8012481E5
S1130A20022E000C330B225331094203B001439FC1
S1130A30700D1124072E000C880B990B0E94870D52
S1130A4020E030E84BE355E4C7D720E030E048EC41
S1130A5053E40E94370E0E94540D7B836A834091B5
S1130A60B402F8012681022E000C330B2253310903
S1130A704203B001439F700D1124072E000C880B14
S1130A80990B0E94870D20E030E84BE355E4A4D78E
S1130A90905820E030E048EC52E40E94370E0E9467
S1130AA0540D7D836C8302C01092B3028091BF0207
S1130AB0882309F452C08091F9029091FA02A0911E
S1130AC0FB02B091FC0288369140A105B105B4F156
S1130AD06091DA027091DB0277231CF471956195C1
S1130AE07109072E000C880B990B0E94870D20E0DA
S1130AF030E040E450E46CD7181604F18091BA0257
S1130B00882339F08D988C9881E08093B8021092F4
S1130B10BA021092F9021092FA021092FB02109299
S1130B20FC02ECECF2E015861486138A128A148A0D
S1130B30158A168A178A1092BF020FC08091F90293
S1130B409091FA02A091FB02B091FC0284369105C7
S1130B50A105B10514F01092B9028091B602882360
S1130B6069F06091F9027091FA028CEC92E0FBD288
S1130B709BD78AE093E005D61092B6028091BA0220
S1130B80882301F18091BE028823E1F072D30091A1
S1130B90EC021091ED022091EE023091EF02DC01A3
S1130BA0CB01801B910BA20BB30B8D3B9240A10593
S1130BB0B10540F067E07FEF8BE093E0E2D581E0A0
S1130BC08093BD028091B9028823E9F052D3009149
S1130BD0E8021091E9022091EA023091EB02DC0173
S1130BE0CB01801B910BA20BB30B8D3B9240A10553
S1130BF0B10548F088E691E09093D9028093D80239
S1130C0081E08093BF028091B7028823D1F031D371
S1130C100091E4021091E5022091E6023091E7028E
S1130C20DC01CB01801B910BA20BB30B8D329140E5
S1130C30A105B10530F091B380E2892781BB109200
S1130C40B7028091BB028823B1F113D30091EC0267
S1130C501091ED022091EE023091EF02DC01CB0104
S1130C60801B910BA20BB30B8C3B9240A105B105E9
S1130C7010F188981092BB021EC069EF70E08BE0FF
S1130C8093E07FD531CE8091100385310CF023CED3
S1130C9028CE1092BE0281E08093BC0234CE8BE059
S1130CA093E052D51092BD021092BC028091BA0218
S1130CB081113DCE46CEDF91CF911F910F910895C2
S1130CC099D5A4D551DAE1D2789429DD6BD3C1DA70
S1130CD04FDB68D3FACF1F920F920FB60F921124F5
S1130CE00BB60F928F939F93AF93BF93EF93FF93A2
S1130CF0ECE6F2E085819681A781B08581839283B9
S1130D00A383B483158216821782108686859785FD
S1130D10A089B18982879387A487B58716861786A9
S1130D20108A118A8789908DA18DB28D838B948BC3
S1130D30A58BB68B178A108E118E128E80A191A16D
S1130D40A2A1B3A1848F958FA68FB78F10A211A2F1
S1130D5012A213A281E08093B2028093B602FF91A3
S1130D60EF91BF91AF919F918F910F900BBE0F9018
S1130D700FBE0F901F901895FC0180818130F1F413
S1130D80E7E0F1E0808181608083808182608083FC
S1130D90EAE0F1E0808188608083E0E2F1E0808134
S1130DA082688083E1E2F1E080818A61808389EF57
S1130DB090E0909327018093260108958230F1F406
S1130DC0E7E0F1E0808184608083808188608083B3
S1130DD0EAE0F1E0808180618083E0E2F1E08081FB
S1130DE082628083E1E2F1E080818A61808389EF1D
S1130DF090E0909327018093260108958330F1F4C5
S1130E00E7E0F1E08081806280838081806180837B
S1130E10EAE0F1E0808180628083E0E2F1E08081B9
S1130E208A608083E1E2F1E080818A61808389EFD6
S1130E3090E0909327018093260108958430C9F4AB
S1130E40E7E0F1E080818068808380818064808332
S1130E506B9AE0E9F0E0808182688083E1E9F0E068
S1130E6080818A61808389EF90E0909397008093DA
S1130E7096000895FC018081823091F018F481304D
S1130E8031F008958330A9F08430E1F00895E8E06A
S1130E90F1E080818160808380818D7F80830895EB
S1130EA0E8E0F1E08081846080838081877F8083B3
S1130EB00895E8E0F1E080818062808380818F7E04
S1130EC080830895E8E0F1E08081806880838081F8
S1130ED08F7B80830895FC018081823091F018F427
S1130EE0813031F008958330A9F08430E1F0089521
S1130EF0E8E0F1E080818E7F80838081826080835E
S1130F000895E8E0F1E080818B7F808380818860B0
S1130F1080830895E8E0F1E080818F7D8083808183
S1130F20806180830895E8E0F1E080818F77808399
S1130F308081806480830895FC0180818230B1F0D7
S1130F4018F4813031F008958330E9F0843041F1B0
S1130F500895E8E0F1E080818E7F808380818D7F39
S1130F60808310922901109228010895E8E0F1E0AD
S1130F7080818B7F80838081877F808310922B0187
S1130F8010922A010895E8E0F1E080818F7D80834A
S1130F9080818F7E808310922D0110922C01089500
S1130FA0E8E0F1E080818F77808380818F7B80838C
S1130FB0109299001092980008950F931F93CF9365
S1130FC0DF938C01EB011C161D060CF453DFDD23AB
S1130FD02CF4D195C195D109C8017DDFCA3FD10553
S1130FE014F0C9EFD0E0F8018081823071F018F478
S1130FF0813031F018C0833069F0843081F013C03F
S1131000D0932901C09328010EC0D0932B01C09323
S11310102A0109C0D0932D01C0932C0104C0D093A0
S11310209900C0939800DF91CF911F910F9108957B
S1131030CF93DF93EC0168839FDECE017DDF60E018
S113104070E0CE01BADFDF91CF910895CF92DF92A5
S1131050EF92FF920F931F93FC01408351836283AD
S113106073830483158326833783C086D186E286FF
S1131070F3861F910F91FF90EF90DF90CF9008952A
S11310808F929F92AF92BF92EF92FF920F931F9312
S1131090CF93DF93EC017B016C857D858B010E1969
S11310A01F091F870E878A899B89800F911F8E379E
S11310B091052CF08DE790E09B8B8A8B0BC08338D5
S11310C02FEF92071CF09B8B8A8B04C083E89FEF61
S11310D09B8B8A8B6A897B89072E000C880B990B62
S11310E016D52C813D814E815F81C1D54B015C01B8
S11310F0B801110F880B990B0AD5288139814A81CF
S11311005B81B5D59B01AC01C501B401FDD34B0195
S11311105C0188899989B701681B790B072E000C3B
S1131120880B990BF4D4288539854A855B859FD52E
S11311309B01AC01C501B401E6D32C893D894E89DC
S11311405F89E2D36C8B7D8B8E8B9F8BF98AE88AC7
S1131150DF91CF911F910F91FF90EF90BF90AF90CF
S11311609F908F9008958F929F92AF92BF92EF922B
S1131170FF920F931F93CF93DF93EC017B016C8558
S11311807D858B010E191F091F870E878A899B890C
S1131190800F911F8E3791052CF08DE790E09B8B8B
S11311A08A8B0BC083382FEF92071CF09B8B8A8BA2
S11311B004C083E89FEF9B8B8A8B6A897B89072E07
S11311C0000C880B990BA3D42C813D814E815F8147
S11311D04ED54B015C01B801110F880B990B97D4C4
S11311E0288139814A815B8142D59B01AC01C501CB
S11311F0B4018AD34B015C0188899989B701681BC2
S1131200790B072E000C880B990B81D4288539851E
S11312104A855B852CD59B01AC01C501B40173D310
S11312206C8B7D8B8E8B9F8BF98AE88ADF91CF91B3
S11312301F910F91FF90EF90BF90AF909F908F9070
S11312400895E1EBF0E0808184608083E0E7F0E0E2
S11312508081816080831092B20008958898899873
S11312608C988D980895809A819A859A849AF6CF5D
S113127008952FB7F8946091C4027091C5028091CB
S1131280C6029091C7022FBF0895CF92DF92EF92CA
S1131290FF920F931F93CF93DF931092BF0210928C
S11312A0BD021092BC021092BB021092BA021092BC
S11312B0B90281E08093B8021092B7021092B6028C
S11312C01092E8021092E9021092EA021092EB02E4
S11312D080E090E0A9E7B3E48093C8029093C90248
S11312E0A093CA02B093CB0261E08BE093E074D286
S11312F062E08AE093E070D261E08DEF92E0B3D1D6
S113130062E080EF92E0AFD1E1E0F1E08081877F9D
S11313108083E2E0F1E0808188608083A4DF8091B3
S1131320000183FF0AC0C0E0D1E069EF70E08BE008
S113133093E027D2888183FDF8CF9BDF6093EC0292
S11313407093ED028093EE029093EF028BE093E0B2
S1131350FBD1109202031092030310920403109223
S1131360050381E08093BE020F2EF6E6CF2EDC2C1F
S1131370FAEEEF2EF1E4FF2EF02D04E016E52EE058
S11313803EE346EF58E26DE372E48CEC92E05EDEFD
S113139058DFDF91CF911F910F91FF90EF90DF9075
S11313A0CF9008958091000183FD04C08091BE0216
S11313B0882369F08091000183FF36C08091BB02CD
S11313C0882391F18091BA02811129C008958BE09C
S11313D093E0BAD181E08093BE021092020310928E
S11313E0030310920403109205031092BD0280932C
S11313F0BB023FDF6093EC027093ED028093EE0238
S11314009093EF0280E090E0A9E7B3E48093C802F0
S11314109093C902A093CA02B093CB02CBCF69EFD9
S113142070E08BE093E0ADC108951F920F920FB668
S11314300F9211248F939F93AF93BF938091C40213
S11314409091C502A091C602B091C7020196A11D58
S1131450B11D8093C4029093C502A093C602B093B9
S1131460C7028091C0029091C102A091C202B091C2
S1131470C3020396A11DB11D8093C0029093C102C3
S1131480A093C202B093C3028091C0029091C102A2
S1131490A091C202B091C3028D379105A105B10597
S11314A038F18091C0029091C102A091C202B09122
S11314B0C3028D579109A109B1098093C002909389
S11314C0C102A093C202B093C3028091C40290915E
S11314D0C502A091C602B091C7020196A11DB11D1B
S11314E08093C4029093C502A093C602B093C7022E
S11314F0BF91AF919F918F910F900FBE0F901F904E
S113150018951F920F920FB60F9211240BB60F92DB
S11315108F939F93AF93BF93EF93FF9335990EC02F
S1131520EDEFF2E085819681A781B0850196A11D3A
S1131530B11D85839683A783B0870DC0EDEFF2E0DC
S113154085819681A781B0850197A109B109858319
S11315509683A783B087FF91EF91BF91AF919F913D
S11315608F910F900BBE0F900FBE0F901F90189588
S11315701F920F920FB60F9211240BB60F928F93F6
S11315809F93AF93BF93EF93FF9337990EC0E0EF10
S1131590F2E081859285A385B4850196A11DB11DD4
S11315A081879287A387B4870DC0E0EFF2E081853D
S11315B09285A385B4850197A109B1098187928792
S11315C0A387B487FF91EF91BF91AF919F918F91C2
S11315D00F900BBE0F900FBE0F901F901895EDEF5C
S11315E0F2E011821282138214821582168217820B
S11315F01086E0EFF2E011821282138214821582C7
S1131600168217821086ECECF2E0108211821282AC
S1131610138214821582168217821086118612860E
S113162013861586148617861686118A108A138ADD
S1131630128A08957894FC018081813049F4EC98F1
S1131640EAE6F0E0808182608083EC9AE49A08956F
S1131650823041F4ED98EAE6F0E08081886080838E
S1131660ED9AE59A0895FC016083613029F46C9841
S11316703D98749A459A06C0623021F46D983F985B
S1131680759A479AD7CF0895FC0180818130C1F4BF
S1131690249AE1E0F1E0808180648083259AE0E887
S11316A0F0E0808182688083E1E8F0E080818A61F3
S11316B0808389EF90E0909387008093860008955B
S11316C08230B9F4279AE1E0F1E08081806280837E
S11316D0269AE0E8F0E0808182628083E1E8F0E02D
S11316E080818A61808389EF90E090938700809362
S11316F086000895FC018081813019F0823041F028
S113170008952C9AE2E0F1E080818F7B8083089534
S11317102F9AE2E0F1E080818F7D80830895FC01BF
S11317208081813019F0823041F008952C98E2E0F4
S1131730F1E080818064808308952F98E2E0F1E0F5
S11317408081806280830895FC018081813019F05A
S1131750823061F008952C98E2E0F1E080818F7B83
S11317608083109289001092880008952F98E2E0F7
S1131770F1E080818F7D808310928B0010928A002B
S113178008950F931F93CF93DF938C01EB011C16E5
S11317901D060CF4AFDFDD232CF4D195C195D109DE
S11317A0C801BDDFCA3FD10514F0C9EFD0E0F8018C
S11317B08081813019F0823031F009C0D0938900E2
S11317C0C093880004C0D0938B00C0938A00DF913B
S11317D0CF911F910F910895CF93DF93EC0168830C
S11317E053DFCE01B1DF60E070E0CE01CADFDF91EC
S11317F0CF9108951092C50087E68093C40088E9CC
S11318008093C10086E08093C200089510920D0376
S1131810EEE0F3E0108211821282138282E3848369
S11318208583868387831092D50089E18093D400D1
S113183088E98093D10086E08093D20008951F92B6
S11318400F920FB60F9211248F938091C60080934C
S113185019038F910F900FBE0F901F9018951F9230
S11318600F920FB60F9211248F938091CE00809324
S113187018038F910F900FBE0F901F9018951F9211
S11318800F920FB60F9211240BB60F928F939F9362
S1131890EF93FF938091D6008093160390910C03ED
S11318A0992389F090910D03E92FF0E0E25FFC4F5A
S11318B080839F5F983018F490930D0304C01092B6
S11318C00D0310920C038F3719F481E080930C03FD
S11318D0FF91EF919F918F910F900BBE0F900FBED0
S11318E00F901F9018951F920F920FB60F9211240C
S11318F08F9380913601809317038F910F900FBEC1
S11319000F901F9018955058BB27AA270ED075C169
S113191066D130F06BD120F031F49F3F11F41EF406
S11319205BC10EF4E095E7FB51C1E92F77D180F359
S1131930BA17620773078407950718F071F49EF5C8
S11319408FC10EF4E0950B2EBA2FA02D0B01B90117
S113195090010C01CA01A0011124FF27591B99F021
S1131960593F50F4503E68F11A16F040A22F232F2D
S1131970342F4427585FF3CF469537952795A7957D
S1131980F0405395C9F77EF41F16BA0B620B730B24
S1131990840BBAF09150A1F0FF0FBB1F661F771F95
S11319A0881FC2F70EC0BA0F621F731F841F48F44A
S11319B0879577956795B795F7959E3F08F0B3CFD0
S11319C09395880F08F09927EE0F979587950895BA
S11319D0D9D008F481E008950CD00FC107D140F0AC
S11319E0FED030F021F45F3F19F0F0C0511139C13D
S11319F0F3C014D198F39923C9F35523B1F3951B7C
S1131A00550BBB27AA2762177307840738F09F5F1B
S1131A105F4F220F331F441FAA1FA9F333D00E2E8A
S1131A203AF0E0E830D091505040E695001CCAF7F7
S1131A3029D0FE2F27D0660F771F881FBB1F2617BC
S1131A4037074807AB07B0E809F0BB0B802DBF018F
S1131A50FF2793585F4F2AF09E3F510568F0B6C0A8
S1131A6000C15F3FECF3983EDCF38695779567956C
S1131A70B795F7959F5FC9F7880F911D9695879540
S1131A8097F90895E1E0660F771F881FBB1F62175F
S1131A9073078407BA0720F0621B730B840BBA0B1D
S1131AA0EE1F88F7E095089504D06894B111D9C069
S1131AB00895BCD088F09F5790F0B92F9927B7515B
S1131AC0A0F0D1F0660F771F881F991F1AF0BA95FE
S1131AD0C9F712C0B13081F0C3D0B1E00895C0C0DD
S1131AE0672F782F8827B85F39F0B93FCCF38695F4
S1131AF077956795B395D9F73EF490958095709551
S1131B0061957F4F8F4F9F4F0895E89409C097FBCD
S1131B103EF490958095709561957F4F8F4F9F4FC0
S1131B209923A9F0F92F96E9BB279395F695879504
S1131B3077956795B795F111F8CFFAF4BB0F11F4C7
S1131B4060FF1BC06F5F7F4F8F4F9F4F16C088236E
S1131B5011F096E911C0772321F09EE8872F762FA4
S1131B6005C0662371F096E8862F70E060E02AF0E5
S1131B709A95660F771F881FDAF7880F96958795D1
S1131B8097F90895990F0008550FAA0BE0E8FEEFA6
S1131B9016161706E807F907C0F012161306E4072D
S1131BA0F50798F0621B730B840B950B39F40A2626
S1131BB061F0232B242B252B21F408950A2609F404
S1131BC0A140A6958FEF811D811D089597F99F6708
S1131BD080E870E060E008959FEF80EC08950024B1
S1131BE00A941616170618060906089500240A947E
S1131BF012161306140605060895092E0394000C04
S1131C0011F4882352F0BB0F40F4BF2B11F460FF92
S1131C1004C06F5F7F4F8F4F9F4F089557FD9058BB
S1131C20440F551F59F05F3F71F04795880F97FB9C
S1131C30991F61F09F3F79F0879508951216130656
S1131C401406551FF2CF4695F1DF08C01616170685
S1131C501806991FF1CF86957105610508940895BA
S1131C60E894BB2766277727CB0197F908950BD013
S1131C70C4CFB5DF28F0BADF18F0952309F0A6CF5A
S1131C80ABCF1124EECFCADFA0F3959FD1F3950F0C
S1131C9050E0551F629FF001729FBB27F00DB11DEC
S1131CA0639FAA27F00DB11DAA1F649F6627B00D7C
S1131CB0A11D661F829F2227B00DA11D621F739F65
S1131CC0B00DA11D621F839FA00D611D221F749F73
S1131CD03327A00D611D231F849F600D211D822FBA
S1131CE0762F6A2F11249F5750408AF0E1F0882301
S1131CF04AF0EE0FFF1FBB1F661F771F881F91500E
S1131D005040A9F79E3F510570F060CFAACF5F3FC6
S1131D10ECF3983EDCF3869577956795B795F79540
S1131D20E7959F5FC1F7FE2B880F911D96958795C8
S1131D3097F90895EE0FFF1F881F8BBF0790F69148
S10B1D40E02D1994F894FFCF83
S10F1D48FF0101010101FF01FF0101FF87
S9030000FC
